{
  "contractName": "Counter",
  "abi": [
    {
      "inputs": [],
      "name": "number",
      "outputs": [
        {
          "internalType": "uint256",
          "name": "",
          "type": "uint256"
        }
      ],
      "stateMutability": "view",
      "type": "function"
    },
    {
      "inputs": [],
      "name": "increment",
      "outputs": [],
      "stateMutability": "nonpayable",
      "type": "function"
    }
  ],
  "bytecode": {
    "object": "0x6080604052348015600e575f80fd5b50609f80601a5f395ff3fe"
  },
  "deployedBytecode": {
    "object": "0x6080604052348015600e575f80fd5b50600436106030575f3560e01c80638381f58a146034578063d09de08a146048575b5f80fd5b5f5460405190815260200160405180910390f35b6052605356a26469706673582212201234567890abcdef1234567890abcdef1234567890abcdef1234567890abcdef64736f6c6343000819000034"
  }
}